{
  "_format": "hh-sol-artifact-1",
  "contractName": "Web3Mint",
  "sourceName": "contracts/Web3Mint.sol",
  "abi": [
    {
      "inputs": [],
      "stateMutability": "nonpayable",
      "type": "constructor"
    },
    {
      "anonymous": false,
      "inputs": [
        {
          "indexed": true,
          "internalType": "address",
          "name": "owner",
          "type": "address"
        },
        {
          "indexed": true,
          "internalType": "address",
          "name": "approved",
          "type": "address"
        },
        {
          "indexed": true,
          "internalType": "uint256",
          "name": "tokenId",
          "type": "uint256"
        }
      ],
      "name": "Approval",
      "type": "event"
    },
    {
      "anonymous": false,
      "inputs": [
        {
          "indexed": true,
          "internalType": "address",
          "name": "owner",
          "type": "address"
        },
        {
          "indexed": true,
          "internalType": "address",
          "name": "operator",
          "type": "address"
        },
        {
          "indexed": false,
          "internalType": "bool",
          "name": "approved",
          "type": "bool"
        }
      ],
      "name": "ApprovalForAll",
      "type": "event"
    },
    {
      "anonymous": false,
      "inputs": [
        {
          "indexed": true,
          "internalType": "address",
          "name": "from",
          "type": "address"
        },
        {
          "indexed": true,
          "internalType": "address",
          "name": "to",
          "type": "address"
        },
        {
          "indexed": true,
          "internalType": "uint256",
          "name": "tokenId",
          "type": "uint256"
        }
      ],
      "name": "Transfer",
      "type": "event"
    },
    {
      "inputs": [
        {
          "internalType": "address",
          "name": "to",
          "type": "address"
        },
        {
          "internalType": "uint256",
          "name": "tokenId",
          "type": "uint256"
        }
      ],
      "name": "approve",
      "outputs": [],
      "stateMutability": "nonpayable",
      "type": "function"
    },
    {
      "inputs": [
        {
          "internalType": "address",
          "name": "owner",
          "type": "address"
        }
      ],
      "name": "balanceOf",
      "outputs": [
        {
          "internalType": "uint256",
          "name": "",
          "type": "uint256"
        }
      ],
      "stateMutability": "view",
      "type": "function"
    },
    {
      "inputs": [
        {
          "internalType": "uint256",
          "name": "tokenId",
          "type": "uint256"
        }
      ],
      "name": "getApproved",
      "outputs": [
        {
          "internalType": "address",
          "name": "",
          "type": "address"
        }
      ],
      "stateMutability": "view",
      "type": "function"
    },
    {
      "inputs": [
        {
          "internalType": "address",
          "name": "owner",
          "type": "address"
        },
        {
          "internalType": "address",
          "name": "operator",
          "type": "address"
        }
      ],
      "name": "isApprovedForAll",
      "outputs": [
        {
          "internalType": "bool",
          "name": "",
          "type": "bool"
        }
      ],
      "stateMutability": "view",
      "type": "function"
    },
    {
      "inputs": [
        {
          "internalType": "string",
          "name": "name",
          "type": "string"
        },
        {
          "internalType": "string",
          "name": "imageURI",
          "type": "string"
        }
      ],
      "name": "mintIpfsNFT",
      "outputs": [],
      "stateMutability": "nonpayable",
      "type": "function"
    },
    {
      "inputs": [],
      "name": "name",
      "outputs": [
        {
          "internalType": "string",
          "name": "",
          "type": "string"
        }
      ],
      "stateMutability": "view",
      "type": "function"
    },
    {
      "inputs": [
        {
          "internalType": "uint256",
          "name": "tokenId",
          "type": "uint256"
        }
      ],
      "name": "ownerOf",
      "outputs": [
        {
          "internalType": "address",
          "name": "",
          "type": "address"
        }
      ],
      "stateMutability": "view",
      "type": "function"
    },
    {
      "inputs": [
        {
          "internalType": "address",
          "name": "from",
          "type": "address"
        },
        {
          "internalType": "address",
          "name": "to",
          "type": "address"
        },
        {
          "internalType": "uint256",
          "name": "tokenId",
          "type": "uint256"
        }
      ],
      "name": "safeTransferFrom",
      "outputs": [],
      "stateMutability": "nonpayable",
      "type": "function"
    },
    {
      "inputs": [
        {
          "internalType": "address",
          "name": "from",
          "type": "address"
        },
        {
          "internalType": "address",
          "name": "to",
          "type": "address"
        },
        {
          "internalType": "uint256",
          "name": "tokenId",
          "type": "uint256"
        },
        {
          "internalType": "bytes",
          "name": "data",
          "type": "bytes"
        }
      ],
      "name": "safeTransferFrom",
      "outputs": [],
      "stateMutability": "nonpayable",
      "type": "function"
    },
    {
      "inputs": [
        {
          "internalType": "address",
          "name": "operator",
          "type": "address"
        },
        {
          "internalType": "bool",
          "name": "approved",
          "type": "bool"
        }
      ],
      "name": "setApprovalForAll",
      "outputs": [],
      "stateMutability": "nonpayable",
      "type": "function"
    },
    {
      "inputs": [
        {
          "internalType": "bytes4",
          "name": "interfaceId",
          "type": "bytes4"
        }
      ],
      "name": "supportsInterface",
      "outputs": [
        {
          "internalType": "bool",
          "name": "",
          "type": "bool"
        }
      ],
      "stateMutability": "view",
      "type": "function"
    },
    {
      "inputs": [],
      "name": "symbol",
      "outputs": [
        {
          "internalType": "string",
          "name": "",
          "type": "string"
        }
      ],
      "stateMutability": "view",
      "type": "function"
    },
    {
      "inputs": [
        {
          "internalType": "uint256",
          "name": "_tokenId",
          "type": "uint256"
        }
      ],
      "name": "tokenURI",
      "outputs": [
        {
          "internalType": "string",
          "name": "",
          "type": "string"
        }
      ],
      "stateMutability": "view",
      "type": "function"
    },
    {
      "inputs": [
        {
          "internalType": "address",
          "name": "from",
          "type": "address"
        },
        {
          "internalType": "address",
          "name": "to",
          "type": "address"
        },
        {
          "internalType": "uint256",
          "name": "tokenId",
          "type": "uint256"
        }
      ],
      "name": "transferFrom",
      "outputs": [],
      "stateMutability": "nonpayable",
      "type": "function"
    }
  ],
  "bytecode": "0x60806040523480156200001157600080fd5b506040518060400160405280600381526020017f4e465400000000000000000000000000000000000000000000000000000000008152506040518060400160405280600381526020017f6e66740000000000000000000000000000000000000000000000000000000000815250816000908051906020019062000096929190620001cf565b508060019080519060200190620000af929190620001cf565b505050620000fd6040518060400160405280601881526020017f54686973206973206d79204e465420636f6e74726163742e00000000000000008152506200010360201b62000a981760201c565b620003ac565b620001a3816040516024016200011a919062000323565b6040516020818303038152906040527f41304fac000000000000000000000000000000000000000000000000000000007bffffffffffffffffffffffffffffffffffffffffffffffffffffffff19166020820180517bffffffffffffffffffffffffffffffffffffffffffffffffffffffff8381831617835250505050620001a660201b60201c565b50565b60008151905060006a636f6e736f6c652e6c6f679050602083016000808483855afa5050505050565b828054620001dd9062000376565b90600052602060002090601f0160209004810192826200020157600085556200024d565b82601f106200021c57805160ff19168380011785556200024d565b828001600101855582156200024d579182015b828111156200024c5782518255916020019190600101906200022f565b5b5090506200025c919062000260565b5090565b5b808211156200027b57600081600090555060010162000261565b5090565b600081519050919050565b600082825260208201905092915050565b60005b83811015620002bb5780820151818401526020810190506200029e565b83811115620002cb576000848401525b50505050565b6000601f19601f8301169050919050565b6000620002ef826200027f565b620002fb81856200028a565b93506200030d8185602086016200029b565b6200031881620002d1565b840191505092915050565b600060208201905081810360008301526200033f8184620002e2565b905092915050565b7f4e487b7100000000000000000000000000000000000000000000000000000000600052602260045260246000fd5b600060028204905060018216806200038f57607f821691505b60208210811415620003a657620003a562000347565b5b50919050565b61308680620003bc6000396000f3fe608060405234801561001057600080fd5b50600436106100ea5760003560e01c806370a082311161008c578063b88d4fde11610066578063b88d4fde1461025b578063c87b56dd14610277578063e985e9c5146102a7578063eb00195d146102d7576100ea565b806370a08231146101f157806395d89b4114610221578063a22cb4651461023f576100ea565b8063095ea7b3116100c8578063095ea7b31461016d57806323b872dd1461018957806342842e0e146101a55780636352211e146101c1576100ea565b806301ffc9a7146100ef57806306fdde031461011f578063081812fc1461013d575b600080fd5b61010960048036038101906101049190611db8565b6102f3565b6040516101169190611e00565b60405180910390f35b6101276103d5565b6040516101349190611eb4565b60405180910390f35b61015760048036038101906101529190611f0c565b610467565b6040516101649190611f7a565b60405180910390f35b61018760048036038101906101829190611fc1565b6104ad565b005b6101a3600480360381019061019e9190612001565b6105c5565b005b6101bf60048036038101906101ba9190612001565b610625565b005b6101db60048036038101906101d69190611f0c565b610645565b6040516101e89190611f7a565b60405180910390f35b61020b60048036038101906102069190612054565b6106cc565b6040516102189190612090565b60405180910390f35b610229610784565b6040516102369190611eb4565b60405180910390f35b610259600480360381019061025491906120d7565b610816565b005b6102756004803603810190610270919061224c565b61082c565b005b610291600480360381019061028c9190611f0c565b61088e565b60405161029e9190611eb4565b60405180910390f35b6102c160048036038101906102bc91906122cf565b61093e565b6040516102ce9190611e00565b60405180910390f35b6102f160048036038101906102ec91906123b0565b6109d2565b005b60007f80ac58cd000000000000000000000000000000000000000000000000000000007bffffffffffffffffffffffffffffffffffffffffffffffffffffffff1916827bffffffffffffffffffffffffffffffffffffffffffffffffffffffff191614806103be57507f5b5e139f000000000000000000000000000000000000000000000000000000007bffffffffffffffffffffffffffffffffffffffffffffffffffffffff1916827bffffffffffffffffffffffffffffffffffffffffffffffffffffffff1916145b806103ce57506103cd82610b31565b5b9050919050565b6060600080546103e490612457565b80601f016020809104026020016040519081016040528092919081815260200182805461041090612457565b801561045d5780601f106104325761010080835404028352916020019161045d565b820191906000526020600020905b81548152906001019060200180831161044057829003601f168201915b5050505050905090565b600061047282610b9b565b6004600083815260200190815260200160002060009054906101000a900473ffffffffffffffffffffffffffffffffffffffff169050919050565b60006104b882610645565b90508073ffffffffffffffffffffffffffffffffffffffff168373ffffffffffffffffffffffffffffffffffffffff161415610529576040517f08c379a0000000000000000000000000000000000000000000000000000000008152600401610520906124fb565b60405180910390fd5b8073ffffffffffffffffffffffffffffffffffffffff16610548610be6565b73ffffffffffffffffffffffffffffffffffffffff161480610577575061057681610571610be6565b61093e565b5b6105b6576040517f08c379a00000000000000000000000000000000000000000000000000000000081526004016105ad9061258d565b60405180910390fd5b6105c08383610bee565b505050565b6105d66105d0610be6565b82610ca7565b610615576040517f08c379a000000000000000000000000000000000000000000000000000000000815260040161060c9061261f565b60405180910390fd5b610620838383610d3c565b505050565b6106408383836040518060200160405280600081525061082c565b505050565b60008061065183611036565b9050600073ffffffffffffffffffffffffffffffffffffffff168173ffffffffffffffffffffffffffffffffffffffff1614156106c3576040517f08c379a00000000000000000000000000000000000000000000000000000000081526004016106ba9061268b565b60405180910390fd5b80915050919050565b60008073ffffffffffffffffffffffffffffffffffffffff168273ffffffffffffffffffffffffffffffffffffffff16141561073d576040517f08c379a00000000000000000000000000000000000000000000000000000000081526004016107349061271d565b60405180910390fd5b600360008373ffffffffffffffffffffffffffffffffffffffff1673ffffffffffffffffffffffffffffffffffffffff168152602001908152602001600020549050919050565b60606001805461079390612457565b80601f01602080910402602001604051908101604052809291908181526020018280546107bf90612457565b801561080c5780601f106107e15761010080835404028352916020019161080c565b820191906000526020600020905b8154815290600101906020018083116107ef57829003601f168201915b5050505050905090565b610828610821610be6565b8383611073565b5050565b61083d610837610be6565b83610ca7565b61087c576040517f08c379a00000000000000000000000000000000000000000000000000000000081526004016108739061261f565b60405180910390fd5b610888848484846111e0565b50505050565b6060600061090e600784815481106108a9576108a861273d565b5b90600052602060002090600202016000016108c38561123c565b600786815481106108d7576108d661273d565b5b90600052602060002090600202016001016040516020016108fa93929190612992565b604051602081830303815290604052611314565b90506000816040516020016109239190612a3b565b60405160208183030381529060405290508092505050919050565b6000600560008473ffffffffffffffffffffffffffffffffffffffff1673ffffffffffffffffffffffffffffffffffffffff16815260200190815260200160002060008373ffffffffffffffffffffffffffffffffffffffff1673ffffffffffffffffffffffffffffffffffffffff16815260200190815260200160002060009054906101000a900460ff16905092915050565b60006109de60066114ac565b90506109ea33826114ba565b600760405180604001604052808581526020018481525090806001815401808255809150506001900390600052602060002090600202016000909190919091506000820151816000019080519060200190610a46929190611ca9565b506020820151816001019080519060200190610a63929190611ca9565b505050610a89604051806060016040528060258152602001612fec6025913982336114d8565b610a936006611577565b505050565b610b2e81604051602401610aac9190611eb4565b6040516020818303038152906040527f41304fac000000000000000000000000000000000000000000000000000000007bffffffffffffffffffffffffffffffffffffffffffffffffffffffff19166020820180517bffffffffffffffffffffffffffffffffffffffffffffffffffffffff838183161783525050505061158d565b50565b60007f01ffc9a7000000000000000000000000000000000000000000000000000000007bffffffffffffffffffffffffffffffffffffffffffffffffffffffff1916827bffffffffffffffffffffffffffffffffffffffffffffffffffffffff1916149050919050565b610ba4816115b6565b610be3576040517f08c379a0000000000000000000000000000000000000000000000000000000008152600401610bda9061268b565b60405180910390fd5b50565b600033905090565b816004600083815260200190815260200160002060006101000a81548173ffffffffffffffffffffffffffffffffffffffff021916908373ffffffffffffffffffffffffffffffffffffffff160217905550808273ffffffffffffffffffffffffffffffffffffffff16610c6183610645565b73ffffffffffffffffffffffffffffffffffffffff167f8c5be1e5ebec7d5bd14f71427d1e84f3dd0314c0f7b2291e5b200ac8c7c3b92560405160405180910390a45050565b600080610cb383610645565b90508073ffffffffffffffffffffffffffffffffffffffff168473ffffffffffffffffffffffffffffffffffffffff161480610cf55750610cf4818561093e565b5b80610d3357508373ffffffffffffffffffffffffffffffffffffffff16610d1b84610467565b73ffffffffffffffffffffffffffffffffffffffff16145b91505092915050565b8273ffffffffffffffffffffffffffffffffffffffff16610d5c82610645565b73ffffffffffffffffffffffffffffffffffffffff1614610db2576040517f08c379a0000000000000000000000000000000000000000000000000000000008152600401610da990612acf565b60405180910390fd5b600073ffffffffffffffffffffffffffffffffffffffff168273ffffffffffffffffffffffffffffffffffffffff161415610e22576040517f08c379a0000000000000000000000000000000000000000000000000000000008152600401610e1990612b61565b60405180910390fd5b610e2f83838360016115f7565b8273ffffffffffffffffffffffffffffffffffffffff16610e4f82610645565b73ffffffffffffffffffffffffffffffffffffffff1614610ea5576040517f08c379a0000000000000000000000000000000000000000000000000000000008152600401610e9c90612acf565b60405180910390fd5b6004600082815260200190815260200160002060006101000a81549073ffffffffffffffffffffffffffffffffffffffff02191690556001600360008573ffffffffffffffffffffffffffffffffffffffff1673ffffffffffffffffffffffffffffffffffffffff168152602001908152602001600020600082825403925050819055506001600360008473ffffffffffffffffffffffffffffffffffffffff1673ffffffffffffffffffffffffffffffffffffffff16815260200190815260200160002060008282540192505081905550816002600083815260200190815260200160002060006101000a81548173ffffffffffffffffffffffffffffffffffffffff021916908373ffffffffffffffffffffffffffffffffffffffff160217905550808273ffffffffffffffffffffffffffffffffffffffff168473ffffffffffffffffffffffffffffffffffffffff167fddf252ad1be2c89b69c2b068fc378daa952ba7f163c4a11628f55a4df523b3ef60405160405180910390a4611031838383600161171d565b505050565b60006002600083815260200190815260200160002060009054906101000a900473ffffffffffffffffffffffffffffffffffffffff169050919050565b8173ffffffffffffffffffffffffffffffffffffffff168373ffffffffffffffffffffffffffffffffffffffff1614156110e2576040517f08c379a00000000000000000000000000000000000000000000000000000000081526004016110d990612bcd565b60405180910390fd5b80600560008573ffffffffffffffffffffffffffffffffffffffff1673ffffffffffffffffffffffffffffffffffffffff16815260200190815260200160002060008473ffffffffffffffffffffffffffffffffffffffff1673ffffffffffffffffffffffffffffffffffffffff16815260200190815260200160002060006101000a81548160ff0219169083151502179055508173ffffffffffffffffffffffffffffffffffffffff168373ffffffffffffffffffffffffffffffffffffffff167f17307eab39ab6107e8899845ad3d59bd9653f200f220920489ca2b5937696c31836040516111d39190611e00565b60405180910390a3505050565b6111eb848484610d3c565b6111f784848484611723565b611236576040517f08c379a000000000000000000000000000000000000000000000000000000000815260040161122d90612c5f565b60405180910390fd5b50505050565b60606000600161124b846118ba565b01905060008167ffffffffffffffff81111561126a57611269612121565b5b6040519080825280601f01601f19166020018201604052801561129c5781602001600182028036833780820191505090505b509050600082602001820190505b600115611309578080600190039150507f3031323334353637383961626364656600000000000000000000000000000000600a86061a8153600a85816112f3576112f2612c7f565b5b049450600085141561130457611309565b6112aa565b819350505050919050565b6060600082519050600081141561133d57604051806020016040528060008152509150506114a7565b6000600360028361134e9190612cdd565b6113589190612d33565b60046113649190612d64565b905060006020826113759190612cdd565b67ffffffffffffffff81111561138e5761138d612121565b5b6040519080825280601f01601f1916602001820160405280156113c05781602001600182028036833780820191505090505b5090506000604051806060016040528060408152602001613011604091399050600181016020830160005b868110156114645760038101905062ffffff818a015116603f8160121c168401518060081b905060ff603f83600c1c1686015116810190508060081b905060ff603f8360061c1686015116810190508060081b905060ff603f831686015116810190508060e01b905080845260048401935050506113eb565b50600386066001811461147e576002811461148e57611499565b613d3d60f01b6002830352611499565b603d60f81b60018303525b508484525050819450505050505b919050565b600081600001549050919050565b6114d4828260405180602001604052806000815250611a0d565b5050565b6115728383836040516024016114f093929190612dbe565b6040516020818303038152906040527f1c7ec448000000000000000000000000000000000000000000000000000000007bffffffffffffffffffffffffffffffffffffffffffffffffffffffff19166020820180517bffffffffffffffffffffffffffffffffffffffffffffffffffffffff838183161783525050505061158d565b505050565b6001816000016000828254019250508190555050565b60008151905060006a636f6e736f6c652e6c6f679050602083016000808483855afa5050505050565b60008073ffffffffffffffffffffffffffffffffffffffff166115d883611036565b73ffffffffffffffffffffffffffffffffffffffff1614159050919050565b600181111561171757600073ffffffffffffffffffffffffffffffffffffffff168473ffffffffffffffffffffffffffffffffffffffff161461168b5780600360008673ffffffffffffffffffffffffffffffffffffffff1673ffffffffffffffffffffffffffffffffffffffff16815260200190815260200160002060008282546116839190612dfc565b925050819055505b600073ffffffffffffffffffffffffffffffffffffffff168373ffffffffffffffffffffffffffffffffffffffff16146117165780600360008573ffffffffffffffffffffffffffffffffffffffff1673ffffffffffffffffffffffffffffffffffffffff168152602001908152602001600020600082825461170e9190612cdd565b925050819055505b5b50505050565b50505050565b60006117448473ffffffffffffffffffffffffffffffffffffffff16611a68565b156118ad578373ffffffffffffffffffffffffffffffffffffffff1663150b7a0261176d610be6565b8786866040518563ffffffff1660e01b815260040161178f9493929190612e85565b602060405180830381600087803b1580156117a957600080fd5b505af19250505080156117da57506040513d601f19601f820116820180604052508101906117d79190612ee6565b60015b61185d573d806000811461180a576040519150601f19603f3d011682016040523d82523d6000602084013e61180f565b606091505b50600081511415611855576040517f08c379a000000000000000000000000000000000000000000000000000000000815260040161184c90612c5f565b60405180910390fd5b805181602001fd5b63150b7a0260e01b7bffffffffffffffffffffffffffffffffffffffffffffffffffffffff1916817bffffffffffffffffffffffffffffffffffffffffffffffffffffffff1916149150506118b2565b600190505b949350505050565b600080600090507a184f03e93ff9f4daa797ed6e38ed64bf6a1f0100000000000000008310611918577a184f03e93ff9f4daa797ed6e38ed64bf6a1f010000000000000000838161190e5761190d612c7f565b5b0492506040810190505b6d04ee2d6d415b85acef81000000008310611955576d04ee2d6d415b85acef8100000000838161194b5761194a612c7f565b5b0492506020810190505b662386f26fc10000831061198457662386f26fc10000838161197a57611979612c7f565b5b0492506010810190505b6305f5e10083106119ad576305f5e10083816119a3576119a2612c7f565b5b0492506008810190505b61271083106119d25761271083816119c8576119c7612c7f565b5b0492506004810190505b606483106119f557606483816119eb576119ea612c7f565b5b0492506002810190505b600a8310611a04576001810190505b80915050919050565b611a178383611a8b565b611a246000848484611723565b611a63576040517f08c379a0000000000000000000000000000000000000000000000000000000008152600401611a5a90612c5f565b60405180910390fd5b505050565b6000808273ffffffffffffffffffffffffffffffffffffffff163b119050919050565b600073ffffffffffffffffffffffffffffffffffffffff168273ffffffffffffffffffffffffffffffffffffffff161415611afb576040517f08c379a0000000000000000000000000000000000000000000000000000000008152600401611af290612f5f565b60405180910390fd5b611b04816115b6565b15611b44576040517f08c379a0000000000000000000000000000000000000000000000000000000008152600401611b3b90612fcb565b60405180910390fd5b611b526000838360016115f7565b611b5b816115b6565b15611b9b576040517f08c379a0000000000000000000000000000000000000000000000000000000008152600401611b9290612fcb565b60405180910390fd5b6001600360008473ffffffffffffffffffffffffffffffffffffffff1673ffffffffffffffffffffffffffffffffffffffff16815260200190815260200160002060008282540192505081905550816002600083815260200190815260200160002060006101000a81548173ffffffffffffffffffffffffffffffffffffffff021916908373ffffffffffffffffffffffffffffffffffffffff160217905550808273ffffffffffffffffffffffffffffffffffffffff16600073ffffffffffffffffffffffffffffffffffffffff167fddf252ad1be2c89b69c2b068fc378daa952ba7f163c4a11628f55a4df523b3ef60405160405180910390a4611ca560008383600161171d565b5050565b828054611cb590612457565b90600052602060002090601f016020900481019282611cd75760008555611d1e565b82601f10611cf057805160ff1916838001178555611d1e565b82800160010185558215611d1e579182015b82811115611d1d578251825591602001919060010190611d02565b5b509050611d2b9190611d2f565b5090565b5b80821115611d48576000816000905550600101611d30565b5090565b6000604051905090565b600080fd5b600080fd5b60007fffffffff0000000000000000000000000000000000000000000000000000000082169050919050565b611d9581611d60565b8114611da057600080fd5b50565b600081359050611db281611d8c565b92915050565b600060208284031215611dce57611dcd611d56565b5b6000611ddc84828501611da3565b91505092915050565b60008115159050919050565b611dfa81611de5565b82525050565b6000602082019050611e156000830184611df1565b92915050565b600081519050919050565b600082825260208201905092915050565b60005b83811015611e55578082015181840152602081019050611e3a565b83811115611e64576000848401525b50505050565b6000601f19601f8301169050919050565b6000611e8682611e1b565b611e908185611e26565b9350611ea0818560208601611e37565b611ea981611e6a565b840191505092915050565b60006020820190508181036000830152611ece8184611e7b565b905092915050565b6000819050919050565b611ee981611ed6565b8114611ef457600080fd5b50565b600081359050611f0681611ee0565b92915050565b600060208284031215611f2257611f21611d56565b5b6000611f3084828501611ef7565b91505092915050565b600073ffffffffffffffffffffffffffffffffffffffff82169050919050565b6000611f6482611f39565b9050919050565b611f7481611f59565b82525050565b6000602082019050611f8f6000830184611f6b565b92915050565b611f9e81611f59565b8114611fa957600080fd5b50565b600081359050611fbb81611f95565b92915050565b60008060408385031215611fd857611fd7611d56565b5b6000611fe685828601611fac565b9250506020611ff785828601611ef7565b9150509250929050565b60008060006060848603121561201a57612019611d56565b5b600061202886828701611fac565b935050602061203986828701611fac565b925050604061204a86828701611ef7565b9150509250925092565b60006020828403121561206a57612069611d56565b5b600061207884828501611fac565b91505092915050565b61208a81611ed6565b82525050565b60006020820190506120a56000830184612081565b92915050565b6120b481611de5565b81146120bf57600080fd5b50565b6000813590506120d1816120ab565b92915050565b600080604083850312156120ee576120ed611d56565b5b60006120fc85828601611fac565b925050602061210d858286016120c2565b9150509250929050565b600080fd5b600080fd5b7f4e487b7100000000000000000000000000000000000000000000000000000000600052604160045260246000fd5b61215982611e6a565b810181811067ffffffffffffffff8211171561217857612177612121565b5b80604052505050565b600061218b611d4c565b90506121978282612150565b919050565b600067ffffffffffffffff8211156121b7576121b6612121565b5b6121c082611e6a565b9050602081019050919050565b82818337600083830152505050565b60006121ef6121ea8461219c565b612181565b90508281526020810184848401111561220b5761220a61211c565b5b6122168482856121cd565b509392505050565b600082601f83011261223357612232612117565b5b81356122438482602086016121dc565b91505092915050565b6000806000806080858703121561226657612265611d56565b5b600061227487828801611fac565b945050602061228587828801611fac565b935050604061229687828801611ef7565b925050606085013567ffffffffffffffff8111156122b7576122b6611d5b565b5b6122c38782880161221e565b91505092959194509250565b600080604083850312156122e6576122e5611d56565b5b60006122f485828601611fac565b925050602061230585828601611fac565b9150509250929050565b600067ffffffffffffffff82111561232a57612329612121565b5b61233382611e6a565b9050602081019050919050565b600061235361234e8461230f565b612181565b90508281526020810184848401111561236f5761236e61211c565b5b61237a8482856121cd565b509392505050565b600082601f83011261239757612396612117565b5b81356123a7848260208601612340565b91505092915050565b600080604083850312156123c7576123c6611d56565b5b600083013567ffffffffffffffff8111156123e5576123e4611d5b565b5b6123f185828601612382565b925050602083013567ffffffffffffffff81111561241257612411611d5b565b5b61241e85828601612382565b9150509250929050565b7f4e487b7100000000000000000000000000000000000000000000000000000000600052602260045260246000fd5b6000600282049050600182168061246f57607f821691505b6020821081141561248357612482612428565b5b50919050565b7f4552433732313a20617070726f76616c20746f2063757272656e74206f776e6560008201527f7200000000000000000000000000000000000000000000000000000000000000602082015250565b60006124e5602183611e26565b91506124f082612489565b604082019050919050565b60006020820190508181036000830152612514816124d8565b9050919050565b7f4552433732313a20617070726f76652063616c6c6572206973206e6f7420746f60008201527f6b656e206f776e6572206f7220617070726f76656420666f7220616c6c000000602082015250565b6000612577603d83611e26565b91506125828261251b565b604082019050919050565b600060208201905081810360008301526125a68161256a565b9050919050565b7f4552433732313a2063616c6c6572206973206e6f7420746f6b656e206f776e6560008201527f72206f7220617070726f76656400000000000000000000000000000000000000602082015250565b6000612609602d83611e26565b9150612614826125ad565b604082019050919050565b60006020820190508181036000830152612638816125fc565b9050919050565b7f4552433732313a20696e76616c696420746f6b656e2049440000000000000000600082015250565b6000612675601883611e26565b91506126808261263f565b602082019050919050565b600060208201905081810360008301526126a481612668565b9050919050565b7f4552433732313a2061646472657373207a65726f206973206e6f74206120766160008201527f6c6964206f776e65720000000000000000000000000000000000000000000000602082015250565b6000612707602983611e26565b9150612712826126ab565b604082019050919050565b60006020820190508181036000830152612736816126fa565b9050919050565b7f4e487b7100000000000000000000000000000000000000000000000000000000600052603260045260246000fd5b600081905092915050565b7f7b226e616d65223a202200000000000000000000000000000000000000000000600082015250565b60006127ad600a8361276c565b91506127b882612777565b600a82019050919050565b60008190508160005260206000209050919050565b600081546127e581612457565b6127ef818661276c565b9450600182166000811461280a576001811461281b5761284e565b60ff1983168652818601935061284e565b612824856127c3565b60005b8381101561284657815481890152600182019150602081019050612827565b838801955050505b50505092915050565b7f202d2d204e465420233a20000000000000000000000000000000000000000000600082015250565b600061288d600b8361276c565b915061289882612857565b600b82019050919050565b60006128ae82611e1b565b6128b8818561276c565b93506128c8818560208601611e37565b80840191505092915050565b7f222c20226465736372697074696f6e223a2022416e2065706963204e4654222c60008201527f2022696d616765223a2022697066733a2f2f0000000000000000000000000000602082015250565b600061293060328361276c565b915061293b826128d4565b603282019050919050565b7f227d000000000000000000000000000000000000000000000000000000000000600082015250565b600061297c60028361276c565b915061298782612946565b600282019050919050565b600061299d826127a0565b91506129a982866127d8565b91506129b482612880565b91506129c082856128a3565b91506129cb82612923565b91506129d782846127d8565b91506129e28261296f565b9150819050949350505050565b7f646174613a6170706c69636174696f6e2f6a736f6e3b6261736536342c000000600082015250565b6000612a25601d8361276c565b9150612a30826129ef565b601d82019050919050565b6000612a4682612a18565b9150612a5282846128a3565b915081905092915050565b7f4552433732313a207472616e736665722066726f6d20696e636f72726563742060008201527f6f776e6572000000000000000000000000000000000000000000000000000000602082015250565b6000612ab9602583611e26565b9150612ac482612a5d565b604082019050919050565b60006020820190508181036000830152612ae881612aac565b9050919050565b7f4552433732313a207472616e7366657220746f20746865207a65726f2061646460008201527f7265737300000000000000000000000000000000000000000000000000000000602082015250565b6000612b4b602483611e26565b9150612b5682612aef565b604082019050919050565b60006020820190508181036000830152612b7a81612b3e565b9050919050565b7f4552433732313a20617070726f766520746f2063616c6c657200000000000000600082015250565b6000612bb7601983611e26565b9150612bc282612b81565b602082019050919050565b60006020820190508181036000830152612be681612baa565b9050919050565b7f4552433732313a207472616e7366657220746f206e6f6e20455243373231526560008201527f63656976657220696d706c656d656e7465720000000000000000000000000000602082015250565b6000612c49603283611e26565b9150612c5482612bed565b604082019050919050565b60006020820190508181036000830152612c7881612c3c565b9050919050565b7f4e487b7100000000000000000000000000000000000000000000000000000000600052601260045260246000fd5b7f4e487b7100000000000000000000000000000000000000000000000000000000600052601160045260246000fd5b6000612ce882611ed6565b9150612cf383611ed6565b9250827fffffffffffffffffffffffffffffffffffffffffffffffffffffffffffffffff03821115612d2857612d27612cae565b5b828201905092915050565b6000612d3e82611ed6565b9150612d4983611ed6565b925082612d5957612d58612c7f565b5b828204905092915050565b6000612d6f82611ed6565b9150612d7a83611ed6565b9250817fffffffffffffffffffffffffffffffffffffffffffffffffffffffffffffffff0483118215151615612db357612db2612cae565b5b828202905092915050565b60006060820190508181036000830152612dd88186611e7b565b9050612de76020830185612081565b612df46040830184611f6b565b949350505050565b6000612e0782611ed6565b9150612e1283611ed6565b925082821015612e2557612e24612cae565b5b828203905092915050565b600081519050919050565b600082825260208201905092915050565b6000612e5782612e30565b612e618185612e3b565b9350612e71818560208601611e37565b612e7a81611e6a565b840191505092915050565b6000608082019050612e9a6000830187611f6b565b612ea76020830186611f6b565b612eb46040830185612081565b8181036060830152612ec68184612e4c565b905095945050505050565b600081519050612ee081611d8c565b92915050565b600060208284031215612efc57612efb611d56565b5b6000612f0a84828501612ed1565b91505092915050565b7f4552433732313a206d696e7420746f20746865207a65726f2061646472657373600082015250565b6000612f49602083611e26565b9150612f5482612f13565b602082019050919050565b60006020820190508181036000830152612f7881612f3c565b9050919050565b7f4552433732313a20746f6b656e20616c7265616479206d696e74656400000000600082015250565b6000612fb5601c83611e26565b9150612fc082612f7f565b602082019050919050565b60006020820190508181036000830152612fe481612fa8565b905091905056fe416e204e465420772f20494420257320686173206265656e206d696e74656420746f2025734142434445464748494a4b4c4d4e4f505152535455565758595a6162636465666768696a6b6c6d6e6f707172737475767778797a303132333435363738392b2fa264697066735822122072b977508d1b76ddfbe02feeb4bd47092d46ad4c103218322ec5e7bd902d555b64736f6c63430008090033",
  "linkReferences": {},
  "deployedLinkReferences": {}
}